{
  "_format": "hh-sol-artifact-1",
  "contractName": "MedicalRecordAudit",
  "sourceName": "contracts/MedicalRecordAudit.sol",
  "abi": [
    {
      "inputs": [],
      "stateMutability": "nonpayable",
      "type": "constructor"
    },
    {
      "anonymous": false,
      "inputs": [
        {
          "indexed": true,
          "internalType": "bytes32",
          "name": "recordId",
          "type": "bytes32"
        },
        {
          "indexed": true,
          "internalType": "address",
          "name": "accessor",
          "type": "address"
        },
        {
          "indexed": false,
          "internalType": "uint256",
          "name": "timestamp",
          "type": "uint256"
        },
        {
          "indexed": false,
          "internalType": "string",
          "name": "accessType",
          "type": "string"
        },
        {
          "indexed": false,
          "internalType": "bool",
          "name": "isEmergency",
          "type": "bool"
        }
      ],
      "name": "AccessLogged",
      "type": "event"
    },
    {
      "anonymous": false,
      "inputs": [
        {
          "indexed": true,
          "internalType": "bytes32",
          "name": "consentId",
          "type": "bytes32"
        },
        {
          "indexed": true,
          "internalType": "address",
          "name": "patient",
          "type": "address"
        },
        {
          "indexed": true,
          "internalType": "address",
          "name": "doctor",
          "type": "address"
        },
        {
          "indexed": false,
          "internalType": "uint256",
          "name": "expiresAt",
          "type": "uint256"
        }
      ],
      "name": "ConsentGranted",
      "type": "event"
    },
    {
      "anonymous": false,
      "inputs": [
        {
          "indexed": true,
          "internalType": "bytes32",
          "name": "consentId",
          "type": "bytes32"
        },
        {
          "indexed": true,
          "internalType": "address",
          "name": "patient",
          "type": "address"
        },
        {
          "indexed": false,
          "internalType": "uint256",
          "name": "timestamp",
          "type": "uint256"
        }
      ],
      "name": "ConsentRevoked",
      "type": "event"
    },
    {
      "inputs": [
        {
          "internalType": "address",
          "name": "user",
          "type": "address"
        }
      ],
      "name": "authorizeUser",
      "outputs": [],
      "stateMutability": "nonpayable",
      "type": "function"
    },
    {
      "inputs": [
        {
          "internalType": "address",
          "name": "",
          "type": "address"
        }
      ],
      "name": "authorizedUsers",
      "outputs": [
        {
          "internalType": "bool",
          "name": "",
          "type": "bool"
        }
      ],
      "stateMutability": "view",
      "type": "function"
    },
    {
      "inputs": [
        {
          "internalType": "bytes32",
          "name": "",
          "type": "bytes32"
        }
      ],
      "name": "consents",
      "outputs": [
        {
          "internalType": "address",
          "name": "patient",
          "type": "address"
        },
        {
          "internalType": "address",
          "name": "doctor",
          "type": "address"
        },
        {
          "internalType": "uint256",
          "name": "grantedAt",
          "type": "uint256"
        },
        {
          "internalType": "uint256",
          "name": "expiresAt",
          "type": "uint256"
        },
        {
          "internalType": "bool",
          "name": "isActive",
          "type": "bool"
        },
        {
          "internalType": "string",
          "name": "consentType",
          "type": "string"
        }
      ],
      "stateMutability": "view",
      "type": "function"
    },
    {
      "inputs": [
        {
          "internalType": "bytes32",
          "name": "recordId",
          "type": "bytes32"
        }
      ],
      "name": "getAccessCount",
      "outputs": [
        {
          "internalType": "uint256",
          "name": "",
          "type": "uint256"
        }
      ],
      "stateMutability": "view",
      "type": "function"
    },
    {
      "inputs": [
        {
          "internalType": "bytes32",
          "name": "recordId",
          "type": "bytes32"
        }
      ],
      "name": "getAccessLogs",
      "outputs": [
        {
          "components": [
            {
              "internalType": "address",
              "name": "accessor",
              "type": "address"
            },
            {
              "internalType": "bytes32",
              "name": "recordHash",
              "type": "bytes32"
            },
            {
              "internalType": "uint256",
              "name": "timestamp",
              "type": "uint256"
            },
            {
              "internalType": "string",
              "name": "accessType",
              "type": "string"
            },
            {
              "internalType": "string",
              "name": "patientId",
              "type": "string"
            },
            {
              "internalType": "string",
              "name": "doctorId",
              "type": "string"
            },
            {
              "internalType": "bool",
              "name": "isEmergency",
              "type": "bool"
            }
          ],
          "internalType": "struct MedicalRecordAudit.AccessLog[]",
          "name": "",
          "type": "tuple[]"
        }
      ],
      "stateMutability": "view",
      "type": "function"
    },
    {
      "inputs": [
        {
          "internalType": "bytes32",
          "name": "consentId",
          "type": "bytes32"
        }
      ],
      "name": "getConsent",
      "outputs": [
        {
          "components": [
            {
              "internalType": "address",
              "name": "patient",
              "type": "address"
            },
            {
              "internalType": "address",
              "name": "doctor",
              "type": "address"
            },
            {
              "internalType": "uint256",
              "name": "grantedAt",
              "type": "uint256"
            },
            {
              "internalType": "uint256",
              "name": "expiresAt",
              "type": "uint256"
            },
            {
              "internalType": "bool",
              "name": "isActive",
              "type": "bool"
            },
            {
              "internalType": "string",
              "name": "consentType",
              "type": "string"
            }
          ],
          "internalType": "struct MedicalRecordAudit.ConsentLog",
          "name": "",
          "type": "tuple"
        }
      ],
      "stateMutability": "view",
      "type": "function"
    },
    {
      "inputs": [],
      "name": "getStats",
      "outputs": [
        {
          "internalType": "uint256",
          "name": "accesses",
          "type": "uint256"
        },
        {
          "internalType": "uint256",
          "name": "consentsCount",
          "type": "uint256"
        }
      ],
      "stateMutability": "view",
      "type": "function"
    },
    {
      "inputs": [
        {
          "internalType": "bytes32",
          "name": "consentId",
          "type": "bytes32"
        },
        {
          "internalType": "address",
          "name": "patient",
          "type": "address"
        },
        {
          "internalType": "address",
          "name": "doctor",
          "type": "address"
        },
        {
          "internalType": "uint256",
          "name": "duration",
          "type": "uint256"
        },
        {
          "internalType": "string",
          "name": "consentType",
          "type": "string"
        }
      ],
      "name": "grantConsent",
      "outputs": [],
      "stateMutability": "nonpayable",
      "type": "function"
    },
    {
      "inputs": [
        {
          "internalType": "bytes32",
          "name": "consentId",
          "type": "bytes32"
        }
      ],
      "name": "isConsentValid",
      "outputs": [
        {
          "internalType": "bool",
          "name": "",
          "type": "bool"
        }
      ],
      "stateMutability": "view",
      "type": "function"
    },
    {
      "inputs": [
        {
          "internalType": "bytes32",
          "name": "recordId",
          "type": "bytes32"
        },
        {
          "internalType": "bytes32",
          "name": "recordHash",
          "type": "bytes32"
        },
        {
          "internalType": "string",
          "name": "accessType",
          "type": "string"
        },
        {
          "internalType": "string",
          "name": "patientId",
          "type": "string"
        },
        {
          "internalType": "string",
          "name": "doctorId",
          "type": "string"
        },
        {
          "internalType": "bool",
          "name": "isEmergency",
          "type": "bool"
        }
      ],
      "name": "logAccess",
      "outputs": [],
      "stateMutability": "nonpayable",
      "type": "function"
    },
    {
      "inputs": [],
      "name": "owner",
      "outputs": [
        {
          "internalType": "address",
          "name": "",
          "type": "address"
        }
      ],
      "stateMutability": "view",
      "type": "function"
    },
    {
      "inputs": [
        {
          "internalType": "bytes32",
          "name": "",
          "type": "bytes32"
        },
        {
          "internalType": "uint256",
          "name": "",
          "type": "uint256"
        }
      ],
      "name": "recordAccess",
      "outputs": [
        {
          "internalType": "address",
          "name": "accessor",
          "type": "address"
        },
        {
          "internalType": "bytes32",
          "name": "recordHash",
          "type": "bytes32"
        },
        {
          "internalType": "uint256",
          "name": "timestamp",
          "type": "uint256"
        },
        {
          "internalType": "string",
          "name": "accessType",
          "type": "string"
        },
        {
          "internalType": "string",
          "name": "patientId",
          "type": "string"
        },
        {
          "internalType": "string",
          "name": "doctorId",
          "type": "string"
        },
        {
          "internalType": "bool",
          "name": "isEmergency",
          "type": "bool"
        }
      ],
      "stateMutability": "view",
      "type": "function"
    },
    {
      "inputs": [
        {
          "internalType": "bytes32",
          "name": "consentId",
          "type": "bytes32"
        }
      ],
      "name": "revokeConsent",
      "outputs": [],
      "stateMutability": "nonpayable",
      "type": "function"
    },
    {
      "inputs": [
        {
          "internalType": "address",
          "name": "user",
          "type": "address"
        }
      ],
      "name": "revokeUser",
      "outputs": [],
      "stateMutability": "nonpayable",
      "type": "function"
    },
    {
      "inputs": [],
      "name": "totalAccesses",
      "outputs": [
        {
          "internalType": "uint256",
          "name": "",
          "type": "uint256"
        }
      ],
      "stateMutability": "view",
      "type": "function"
    },
    {
      "inputs": [],
      "name": "totalConsents",
      "outputs": [
        {
          "internalType": "uint256",
          "name": "",
          "type": "uint256"
        }
      ],
      "stateMutability": "view",
      "type": "function"
    }
  ],
  "bytecode": "0x608060405234801561001057600080fd5b50600380546001600160a01b031916339081179091556000908152600260205260409020805460ff1916600117905561158d8061004e6000396000f3fe608060405234801561001057600080fd5b50600436106101005760003560e01c80637715ae3411610097578063b3d8ccbd11610066578063b3d8ccbd1461025c578063c59d484714610281578063c87266261461029c578063ef097fc4146102af57600080fd5b80637715ae34146101e85780638da5cb5b146102085780639d29154914610233578063ad9b738b1461023c57600080fd5b806338eeb509116100d357806338eeb50914610189578063494fa0831461019c578063623f3201146101af57806367c2a360146101d557600080fd5b806307a0315d146101055780631828983a1461011a57806329c93175146101525780632fd5505214610169575b600080fd5b610118610113366004610efc565b6102c2565b005b61013d610128366004610f31565b60026020526000908152604090205460ff1681565b60405190151581526020015b60405180910390f35b61015b60055481565b604051908152602001610149565b61017c610177366004610efc565b6103b0565b6040516101499190610f92565b610118610197366004611110565b61060c565b6101186101aa366004611182565b610770565b6101c26101bd366004611236565b6108e1565b6040516101499796959493929190611258565b6101186101e3366004610f31565b610ae2565b6101fb6101f6366004610efc565b610b5b565b60405161014991906112c2565b60035461021b906001600160a01b031681565b6040516001600160a01b039091168152602001610149565b61015b60045481565b61015b61024a366004610efc565b60009081526020819052604090205490565b61026f61026a366004610efc565b610ca5565b60405161014996959493929190611325565b60045460055460408051928352602083019190915201610149565b61013d6102aa366004610efc565b610d77565b6101186102bd366004610f31565b610e86565b3360009081526002602052604090205460ff166102fa5760405162461bcd60e51b81526004016102f190611373565b60405180910390fd5b60008181526001602052604090206004015460ff166103505760405162461bcd60e51b8152602060048201526012602482015271436f6e73656e74206e6f742061637469766560701b60448201526064016102f1565b60008181526001602090815260409182902060048101805460ff191690555491514281526001600160a01b039092169183917f9287389bb1f26a85b64a2033c64ac2da77005fa0be96af9a491904f2fab415fc910160405180910390a350565b600081815260208181526040808320805482518185028101850190935280835260609492939192909184015b828210156106015760008481526020908190206040805160e0810182526007860290920180546001600160a01b0316835260018101549383019390935260028301549082015260038201805491929160608401919061043a9061139b565b80601f01602080910402602001604051908101604052809291908181526020018280546104669061139b565b80156104b35780601f10610488576101008083540402835291602001916104b3565b820191906000526020600020905b81548152906001019060200180831161049657829003601f168201915b505050505081526020016004820180546104cc9061139b565b80601f01602080910402602001604051908101604052809291908181526020018280546104f89061139b565b80156105455780601f1061051a57610100808354040283529160200191610545565b820191906000526020600020905b81548152906001019060200180831161052857829003601f168201915b5050505050815260200160058201805461055e9061139b565b80601f016020809104026020016040519081016040528092919081815260200182805461058a9061139b565b80156105d75780601f106105ac576101008083540402835291602001916105d7565b820191906000526020600020905b8154815290600101906020018083116105ba57829003601f168201915b50505091835250506006919091015460ff16151560209182015290825260019290920191016103dc565b505050509050919050565b3360009081526002602052604090205460ff1661063b5760405162461bcd60e51b81526004016102f190611373565b6040518060c00160405280856001600160a01b03168152602001846001600160a01b03168152602001428152602001834261067691906113eb565b81526001602080830182905260409283018590526000898152828252839020845181546001600160a01b03199081166001600160a01b03928316178355928601519382018054909316931692909217905590820151600282015560608201516003820155608082015160048201805460ff191691151591909117905560a082015160058201906107069082611453565b5050600580549150600061071983611513565b90915550506001600160a01b03808416908516867fd6bd2aa925d0c8387ccedab2347c85d550cc23f04cfd6a077ad65d16f46aed2061075886426113eb565b60405190815260200160405180910390a45050505050565b3360009081526002602052604090205460ff1661079f5760405162461bcd60e51b81526004016102f190611373565b600086815260208181526040808320815160e0810183523381528084018a815242938201938452606082018a8152608083018a905260a0830189905287151560c084015283546001808201865594885295909620825160079096020180546001600160a01b0319166001600160a01b03909616959095178555519184019190915590516002830155915160038201906108389082611453565b506080820151600482019061084d9082611453565b5060a082015160058201906108629082611453565b5060c091909101516006909101805460ff19169115159190911790556004805490600061088e83611513565b9190505550336001600160a01b0316867f5319fb7a44d2f96ef6843ad8674e4ae87a53da3ab7f2862bc9e5574e662cd27a4287856040516108d19392919061152c565b60405180910390a3505050505050565b600060205281600052604060002081815481106108fd57600080fd5b600091825260209091206007909102018054600182015460028301546003840180546001600160a01b039094169650919450929161093a9061139b565b80601f01602080910402602001604051908101604052809291908181526020018280546109669061139b565b80156109b35780601f10610988576101008083540402835291602001916109b3565b820191906000526020600020905b81548152906001019060200180831161099657829003601f168201915b5050505050908060040180546109c89061139b565b80601f01602080910402602001604051908101604052809291908181526020018280546109f49061139b565b8015610a415780601f10610a1657610100808354040283529160200191610a41565b820191906000526020600020905b815481529060010190602001808311610a2457829003601f168201915b505050505090806005018054610a569061139b565b80601f0160208091040260200160405190810160405280929190818152602001828054610a829061139b565b8015610acf5780601f10610aa457610100808354040283529160200191610acf565b820191906000526020600020905b815481529060010190602001808311610ab257829003601f168201915b5050506006909301549192505060ff1687565b6003546001600160a01b03163314610b375760405162461bcd60e51b81526020600482015260186024820152774f6e6c79206f776e65722063616e2063616c6c207468697360401b60448201526064016102f1565b6001600160a01b03166000908152600260205260409020805460ff19166001179055565b610ba86040518060c0016040528060006001600160a01b0316815260200160006001600160a01b031681526020016000815260200160008152602001600015158152602001606081525090565b600082815260016020818152604092839020835160c08101855281546001600160a01b039081168252938201549093169183019190915260028101549282019290925260038201546060820152600482015460ff161515608082015260058201805491929160a084019190610c1c9061139b565b80601f0160208091040260200160405190810160405280929190818152602001828054610c489061139b565b8015610c955780601f10610c6a57610100808354040283529160200191610c95565b820191906000526020600020905b815481529060010190602001808311610c7857829003601f168201915b5050505050815250509050919050565b60016020819052600091825260409091208054918101546002820154600383015460048401546005850180546001600160a01b0397881697909516959394929360ff90921692610cf49061139b565b80601f0160208091040260200160405190810160405280929190818152602001828054610d209061139b565b8015610d6d5780601f10610d4257610100808354040283529160200191610d6d565b820191906000526020600020905b815481529060010190602001808311610d5057829003601f168201915b5050505050905086565b6000818152600160208181526040808420815160c08101835281546001600160a01b039081168252948201549094169284019290925260028201549083015260038101546060830152600481015460ff16151560808301526005810180548493929160a0840191610de79061139b565b80601f0160208091040260200160405190810160405280929190818152602001828054610e139061139b565b8015610e605780601f10610e3557610100808354040283529160200191610e60565b820191906000526020600020905b815481529060010190602001808311610e4357829003601f168201915b505050505081525050905080608001518015610e7f5750806060015142105b9392505050565b6003546001600160a01b03163314610edb5760405162461bcd60e51b81526020600482015260186024820152774f6e6c79206f776e65722063616e2063616c6c207468697360401b60448201526064016102f1565b6001600160a01b03166000908152600260205260409020805460ff19169055565b600060208284031215610f0e57600080fd5b5035919050565b80356001600160a01b0381168114610f2c57600080fd5b919050565b600060208284031215610f4357600080fd5b610e7f82610f15565b6000815180845260005b81811015610f7257602081850181015186830182015201610f56565b506000602082860101526020601f19601f83011685010191505092915050565b60006020808301818452808551808352604092508286019150828160051b87010184880160005b8381101561105f57888303603f19018552815180516001600160a01b031684528781015188850152868101518785015260608082015160e0828701819052919061100583880182610f4c565b92505050608080830151868303828801526110208382610f4c565b9250505060a0808301518683038288015261103b8382610f4c565b60c09485015115159790940196909652505094870194925090860190600101610fb9565b509098975050505050505050565b634e487b7160e01b600052604160045260246000fd5b600082601f83011261109457600080fd5b813567ffffffffffffffff808211156110af576110af61106d565b604051601f8301601f19908116603f011681019082821181831017156110d7576110d761106d565b816040528381528660208588010111156110f057600080fd5b836020870160208301376000602085830101528094505050505092915050565b600080600080600060a0868803121561112857600080fd5b8535945061113860208701610f15565b935061114660408701610f15565b925060608601359150608086013567ffffffffffffffff81111561116957600080fd5b61117588828901611083565b9150509295509295909350565b60008060008060008060c0878903121561119b57600080fd5b8635955060208701359450604087013567ffffffffffffffff808211156111c157600080fd5b6111cd8a838b01611083565b955060608901359150808211156111e357600080fd5b6111ef8a838b01611083565b9450608089013591508082111561120557600080fd5b5061121289828a01611083565b92505060a0870135801515811461122857600080fd5b809150509295509295509295565b6000806040838503121561124957600080fd5b50508035926020909101359150565b60018060a01b038816815286602082015285604082015260e06060820152600061128560e0830187610f4c565b82810360808401526112978187610f4c565b905082810360a08401526112ab8186610f4c565b91505082151560c083015298975050505050505050565b60208152600060018060a01b038084511660208401528060208501511660408401525060408301516060830152606083015160808301526080830151151560a083015260a083015160c08084015261131d60e0840182610f4c565b949350505050565b6001600160a01b038781168252861660208201526040810185905260608101849052821515608082015260c060a0820181905260009061136790830184610f4c565b98975050505050505050565b6020808252600e908201526d139bdd08185d5d1a1bdc9a5e995960921b604082015260600190565b600181811c908216806113af57607f821691505b6020821081036113cf57634e487b7160e01b600052602260045260246000fd5b50919050565b634e487b7160e01b600052601160045260246000fd5b808201808211156113fe576113fe6113d5565b92915050565b601f82111561144e57600081815260208120601f850160051c8101602086101561142b5750805b601f850160051c820191505b8181101561144a57828155600101611437565b5050505b505050565b815167ffffffffffffffff81111561146d5761146d61106d565b6114818161147b845461139b565b84611404565b602080601f8311600181146114b6576000841561149e5750858301515b600019600386901b1c1916600185901b17855561144a565b600085815260208120601f198616915b828110156114e5578886015182559484019460019091019084016114c6565b50858210156115035787850151600019600388901b60f8161c191681555b5050505050600190811b01905550565b600060018201611525576115256113d5565b5060010190565b8381526060602082015260006115456060830185610f4c565b9050821515604083015294935050505056fea2646970667358221220fc6ca73db245aa7552dd814630bc7aafb291878cc217f1561762103978da12fe64736f6c63430008130033",
  "linkReferences": {},
  "deployedLinkReferences": {}
}